{
  "contractName": "Auction",
  "abi": [
    {
      "constant": true,
      "inputs": [],
      "name": "endBlock",
      "outputs": [
        {
          "name": "",
          "type": "uint256"
        }
      ],
      "payable": false,
      "stateMutability": "view",
      "type": "function"
    },
    {
      "constant": true,
      "inputs": [],
      "name": "notary_no",
      "outputs": [
        {
          "name": "",
          "type": "int128"
        }
      ],
      "payable": false,
      "stateMutability": "view",
      "type": "function"
    },
    {
      "constant": true,
      "inputs": [],
      "name": "startBlock",
      "outputs": [
        {
          "name": "",
          "type": "uint256"
        }
      ],
      "payable": false,
      "stateMutability": "view",
      "type": "function"
    },
    {
      "constant": true,
      "inputs": [],
      "name": "auctioneer",
      "outputs": [
        {
          "name": "",
          "type": "address"
        }
      ],
      "payable": false,
      "stateMutability": "view",
      "type": "function"
    },
    {
      "constant": true,
      "inputs": [],
      "name": "M",
      "outputs": [
        {
          "name": "",
          "type": "uint256"
        }
      ],
      "payable": false,
      "stateMutability": "view",
      "type": "function"
    },
    {
      "constant": true,
      "inputs": [],
      "name": "bidder_size",
      "outputs": [
        {
          "name": "",
          "type": "int128"
        }
      ],
      "payable": false,
      "stateMutability": "view",
      "type": "function"
    },
    {
      "constant": true,
      "inputs": [],
      "name": "cancelled",
      "outputs": [
        {
          "name": "",
          "type": "bool"
        }
      ],
      "payable": false,
      "stateMutability": "view",
      "type": "function"
    },
    {
      "constant": true,
      "inputs": [],
      "name": "notary_size",
      "outputs": [
        {
          "name": "",
          "type": "int128"
        }
      ],
      "payable": false,
      "stateMutability": "view",
      "type": "function"
    },
    {
      "constant": true,
      "inputs": [],
      "name": "q",
      "outputs": [
        {
          "name": "",
          "type": "uint256"
        }
      ],
      "payable": false,
      "stateMutability": "view",
      "type": "function"
    },
    {
      "inputs": [
        {
          "name": "_q",
          "type": "uint256"
        },
        {
          "name": "_M",
          "type": "uint256"
        },
        {
          "name": "_startBlock",
          "type": "uint256"
        },
        {
          "name": "_endBlock",
          "type": "uint256"
        }
      ],
      "payable": false,
      "stateMutability": "nonpayable",
      "type": "constructor"
    },
    {
      "anonymous": false,
      "inputs": [
        {
          "indexed": false,
          "name": "bidd",
          "type": "address"
        },
        {
          "indexed": false,
          "name": "not",
          "type": "address"
        }
      ],
      "name": "Assignment",
      "type": "event"
    },
    {
      "anonymous": false,
      "inputs": [
        {
          "indexed": false,
          "name": "num",
          "type": "int128"
        }
      ],
      "name": "randomnumber",
      "type": "event"
    },
    {
      "anonymous": false,
      "inputs": [
        {
          "indexed": false,
          "name": "k",
          "type": "int128"
        },
        {
          "indexed": false,
          "name": "j",
          "type": "int128"
        },
        {
          "indexed": false,
          "name": "num",
          "type": "uint256"
        }
      ],
      "name": "pay",
      "type": "event"
    },
    {
      "anonymous": false,
      "inputs": [
        {
          "indexed": false,
          "name": "a",
          "type": "uint256[2]"
        },
        {
          "indexed": false,
          "name": "b",
          "type": "uint256[2]"
        }
      ],
      "name": "equal_item",
      "type": "event"
    },
    {
      "constant": false,
      "inputs": [],
      "name": "notaryRegister",
      "outputs": [],
      "payable": false,
      "stateMutability": "nonpayable",
      "type": "function"
    },
    {
      "constant": false,
      "inputs": [],
      "name": "randomgenerator",
      "outputs": [
        {
          "name": "",
          "type": "uint128"
        }
      ],
      "payable": false,
      "stateMutability": "nonpayable",
      "type": "function"
    },
    {
      "constant": false,
      "inputs": [
        {
          "name": "items",
          "type": "uint256[][]"
        },
        {
          "name": "input",
          "type": "uint256[2]"
        }
      ],
      "name": "bidderRegister",
      "outputs": [
        {
          "name": "",
          "type": "uint256"
        }
      ],
      "payable": false,
      "stateMutability": "nonpayable",
      "type": "function"
    },
    {
      "constant": false,
      "inputs": [
        {
          "name": "x",
          "type": "uint256"
        }
      ],
      "name": "sqrt",
      "outputs": [
        {
          "name": "y",
          "type": "uint256"
        }
      ],
      "payable": false,
      "stateMutability": "nonpayable",
      "type": "function"
    },
    {
      "constant": false,
      "inputs": [
        {
          "name": "a",
          "type": "uint256[2]"
        },
        {
          "name": "b",
          "type": "uint256[2]"
        }
      ],
      "name": "comparator",
      "outputs": [
        {
          "name": "",
          "type": "uint256"
        }
      ],
      "payable": false,
      "stateMutability": "nonpayable",
      "type": "function"
    },
    {
      "constant": false,
      "inputs": [
        {
          "name": "left",
          "type": "int128"
        },
        {
          "name": "right",
          "type": "int128"
        }
      ],
      "name": "sort",
      "outputs": [],
      "payable": false,
      "stateMutability": "nonpayable",
      "type": "function"
    },
    {
      "constant": false,
      "inputs": [
        {
          "name": "items",
          "type": "uint256[][]"
        },
        {
          "name": "upcoming",
          "type": "uint256[][]"
        }
      ],
      "name": "intersection",
      "outputs": [
        {
          "name": "",
          "type": "bool"
        }
      ],
      "payable": false,
      "stateMutability": "nonpayable",
      "type": "function"
    },
    {
      "constant": false,
      "inputs": [],
      "name": "get_payments",
      "outputs": [
        {
          "name": "",
          "type": "uint256[]"
        }
      ],
      "payable": false,
      "stateMutability": "nonpayable",
      "type": "function"
    },
    {
      "constant": false,
      "inputs": [],
      "name": "find_winner",
      "outputs": [
        {
          "name": "",
          "type": "int128[]"
        }
      ],
      "payable": false,
      "stateMutability": "nonpayable",
      "type": "function"
    },
    {
      "constant": false,
      "inputs": [],
      "name": "get_notary_size",
      "outputs": [
        {
          "name": "",
          "type": "address[2]"
        }
      ],
      "payable": false,
      "stateMutability": "nonpayable",
      "type": "function"
    }
  ],
  "bytecode": "0x60806040523480156200001157600080fd5b506040516080806200316b833981018060405262000033919081019062000166565b336000806101000a81548173ffffffffffffffffffffffffffffffffffffffff021916908373ffffffffffffffffffffffffffffffffffffffff160217905550836003819055508260048190555081600181905550806002819055506000600560016101000a8154816fffffffffffffffffffffffffffffffff0219169083600f0b6fffffffffffffffffffffffffffffffff1602179055506000600660006101000a8154816fffffffffffffffffffffffffffffffff0219169083600f0b6fffffffffffffffffffffffffffffffff1602179055506000600660106101000a8154816fffffffffffffffffffffffffffffffff0219169083600f0b6fffffffffffffffffffffffffffffffff16021790555050505050620001dc565b60006200015e8251620001d2565b905092915050565b600080600080608085870312156200017d57600080fd5b60006200018d8782880162000150565b9450506020620001a08782880162000150565b9350506040620001b38782880162000150565b9250506060620001c68782880162000150565b91505092959194509250565b6000819050919050565b612f7f80620001ec6000396000f300608060405260043610610107576000357c0100000000000000000000000000000000000000000000000000000000900463ffffffff16806307e255c31461010c578063083c632314610149578063393626241461017457806348cd4cb11461019f5780635ec2c7bf146101ca578063677342ce146101f5578063693f917e146102325780636b5d6d661461025d578063884ff8cf1461029a5780638ef5a5bf146102c557806395af48a2146102f05780639a82a09a1461031b578063c1c5b7ee14610346578063dd89775814610371578063ec17c47414610388578063f60d91f8146103b3578063fa1259e7146103de578063faf3404e14610407578063fd3ab28214610444575b600080fd5b34801561011857600080fd5b50610133600480360361012e91908101906129d1565b61046f565b6040516101409190612d21565b60405180910390f35b34801561015557600080fd5b5061015e6105ba565b60405161016b9190612da9565b60405180910390f35b34801561018057600080fd5b506101896105c0565b6040516101969190612d3c565b60405180910390f35b3480156101ab57600080fd5b506101b46105d3565b6040516101c19190612da9565b60405180910390f35b3480156101d657600080fd5b506101df6105d9565b6040516101ec9190612c7e565b60405180910390f35b34801561020157600080fd5b5061021c60048036036102179190810190612b09565b6105fe565b6040516102299190612da9565b60405180910390f35b34801561023e57600080fd5b50610247610672565b6040516102549190612da9565b60405180910390f35b34801561026957600080fd5b50610284600480360361027f9190810190612a91565b610678565b6040516102919190612da9565b60405180910390f35b3480156102a657600080fd5b506102af610726565b6040516102bc9190612d3c565b60405180910390f35b3480156102d157600080fd5b506102da610739565b6040516102e79190612cdd565b60405180910390f35b3480156102fc57600080fd5b50610305610bf5565b6040516103129190612cc2565b60405180910390f35b34801561032757600080fd5b50610330610cf0565b60405161033d9190612d21565b60405180910390f35b34801561035257600080fd5b5061035b610d03565b6040516103689190612d3c565b60405180910390f35b34801561037d57600080fd5b50610386610d16565b005b34801561039457600080fd5b5061039d610f30565b6040516103aa9190612d8e565b60405180910390f35b3480156103bf57600080fd5b506103c8610fb7565b6040516103d59190612cff565b60405180910390f35b3480156103ea57600080fd5b5061040560048036036104009190810190612acd565b61199c565b005b34801561041357600080fd5b5061042e60048036036104299190810190612a3d565b611f4d565b60405161043b9190612da9565b60405180910390f35b34801561045057600080fd5b506104596126b1565b6040516104669190612da9565b60405180910390f35b60008060008060008091505b85518210156105ab57600090505b865181101561059e576002610582604080519081016040528089868151811015156104b057fe5b9060200190602002015160008151811015156104c857fe5b90602001906020020151815260200189868151811015156104e557fe5b9060200190602002015160018151811015156104fd57fe5b9060200190602002015181525060408051908101604052808b8681518110151561052357fe5b90602001906020020151600081518110151561053b57fe5b9060200190602002015181526020018b8681518110151561055857fe5b90602001906020020151600181518110151561057057fe5b90602001906020020151815250610678565b141561059157600194506105b0565b8080600101915050610489565b818060010192505061047b565b600094505b5050505092915050565b60025481565b600660109054906101000a9004600f0b81565b60015481565b6000809054906101000a900473ffffffffffffffffffffffffffffffffffffffff1681565b6000806000831415610613576000915061066c565b600383111515610626576001915061066c565b60026001840181151561063557fe5b0490508291505b8181101561066857809150600281828581151561065557fe5b040181151561066057fe5b04905061063c565b8191505b50919050565b60045481565b600080600083600060028110151561068c57fe5b60200201518560006002811015156106a057fe5b60200201510391508360016002811015156106b757fe5b60200201518560016002811015156106cb57fe5b6020020151039050600081830114156106e7576002925061071e565b60026003548115156106f557fe5b056003546003548385010181151561070957fe5b071215610719576001925061071e565b600092505b505092915050565b600660009054906101000a9004600f0b81565b606060008060008061075e60006001600560019054906101000a9004600f0b0361199c565b600b6000908060018154018082558091505090600182039060005260206000209060029182820401919006601002909192909190916101000a8154816fffffffffffffffffffffffffffffffff0219169083600f0b6fffffffffffffffffffffffffffffffff1602179055505060009250600191505b600660109054906101000a9004600f0b600f0b82600f0b1215610b755760009250600090505b600b80549050600f0b81600f0b1215610ae9576000151560096000600a600086600f0b600f0b815260200190815260200160002060009054906101000a900473ffffffffffffffffffffffffffffffffffffffff1673ffffffffffffffffffffffffffffffffffffffff1673ffffffffffffffffffffffffffffffffffffffff16815260200190815260200160002060000160149054906101000a900460ff1615151480610ace5750610acd60096000600a600086600f0b600f0b815260200190815260200160002060009054906101000a900473ffffffffffffffffffffffffffffffffffffffff1673ffffffffffffffffffffffffffffffffffffffff1673ffffffffffffffffffffffffffffffffffffffff168152602001908152602001600020600101805480602002602001604051908101604052809291908181526020016000905b828210156109b35783829060005260206000200180548060200260200160405190810160405280929190818152602001828054801561099f57602002820191906000526020600020905b81548152602001906001019080831161098b575b505050505081526020019060010190610941565b5050505060096000600a600086600f0b600f0b815260200190815260200160002060009054906101000a900473ffffffffffffffffffffffffffffffffffffffff1673ffffffffffffffffffffffffffffffffffffffff1673ffffffffffffffffffffffffffffffffffffffff168152602001908152602001600020600101805480602002602001604051908101604052809291908181526020016000905b82821015610ac457838290600052602060002001805480602002602001604051908101604052809291908181526020018280548015610ab057602002820191906000526020600020905b815481526020019060010190808311610a9c575b505050505081526020019060010190610a52565b5050505061046f565b5b15610adc5760019250610ae9565b80806001019150506107fa565b600115158315151415610afb57610b68565b600b82908060018154018082558091505090600182039060005260206000209060029182820401919006601002909192909190916101000a8154816fffffffffffffffffffffffffffffffff0219169083600f0b6fffffffffffffffffffffffffffffffff160217905550505b81806001019250506107d4565b600b805480602002602001604051908101604052809291908181526020018280548015610be757602002820191906000526020600020906000905b82829054906101000a9004600f0b600f0b81526020019060100190602082600f01049283019260010382029150808411610bb05790505b505050505094505050505090565b610bfd6126b7565b6040805190810160405280600a600080600f0b815260200190815260200160002060009054906101000a900473ffffffffffffffffffffffffffffffffffffffff1673ffffffffffffffffffffffffffffffffffffffff1673ffffffffffffffffffffffffffffffffffffffff168152602001600a60006001600560019054906101000a9004600f0b03600f0b600f0b815260200190815260200160002060009054906101000a900473ffffffffffffffffffffffffffffffffffffffff1673ffffffffffffffffffffffffffffffffffffffff1673ffffffffffffffffffffffffffffffffffffffff16815250905090565b600560009054906101000a900460ff1681565b600560019054906101000a9004600f0b81565b600960003373ffffffffffffffffffffffffffffffffffffffff1673ffffffffffffffffffffffffffffffffffffffff16815260200190815260200160002060040160009054906101000a900460ff1680610dbd5750600760003373ffffffffffffffffffffffffffffffffffffffff1673ffffffffffffffffffffffffffffffffffffffff16815260200190815260200160002060020160009054906101000a900460ff165b80610e1457503373ffffffffffffffffffffffffffffffffffffffff166000809054906101000a900473ffffffffffffffffffffffffffffffffffffffff1673ffffffffffffffffffffffffffffffffffffffff16145b15610e1e57600080fd5b6001600960003373ffffffffffffffffffffffffffffffffffffffff1673ffffffffffffffffffffffffffffffffffffffff16815260200190815260200160002060040160006101000a81548160ff02191690831515021790555033600a6000600560019054906101000a9004600f0b600f0b600f0b815260200190815260200160002060006101000a81548173ffffffffffffffffffffffffffffffffffffffff021916908373ffffffffffffffffffffffffffffffffffffffff1602179055506001600560019054906101000a9004600f0b01600560016101000a8154816fffffffffffffffffffffffffffffffff0219169083600f0b6fffffffffffffffffffffffffffffffff160217905550565b6000600560019054906101000a9004600f0b6fffffffffffffffffffffffffffffffff16600560019054906101000a9004600f0b600f0b42446040518083815260200182815260200192505050604051809103902060019004600f0b811515610f9557fe5b076fffffffffffffffffffffffffffffffff16811515610fb157fe5b06905090565b6060600080600080600080600094505b600b805490508510156119405760009350600b85815481101515610fe757fe5b90600052602060002090600291828204019190066010029054906101000a9004600f0b92507f288f2f2ccdc7eb7462107ebbfa8e52c4432327ac7adb36f177b8ffcc0e4fc98483848660405161103f93929190612d57565b60405180910390a160009550600091505b600660109054906101000a9004600f0b600f0b82600f0b121561190757600090505b81600f0b81600f0b12156113755782600f0b81600f0b141561109357611368565b6000151560096000600a600086600f0b600f0b815260200190815260200160002060009054906101000a900473ffffffffffffffffffffffffffffffffffffffff1673ffffffffffffffffffffffffffffffffffffffff1673ffffffffffffffffffffffffffffffffffffffff16815260200190815260200160002060000160149054906101000a900460ff1615151415801561135d57506001151561135960096000600a600087600f0b600f0b815260200190815260200160002060009054906101000a900473ffffffffffffffffffffffffffffffffffffffff1673ffffffffffffffffffffffffffffffffffffffff1673ffffffffffffffffffffffffffffffffffffffff168152602001908152602001600020600101805480602002602001604051908101604052809291908181526020016000905b8282101561123f5783829060005260206000200180548060200260200160405190810160405280929190818152602001828054801561122b57602002820191906000526020600020905b815481526020019060010190808311611217575b5050505050815260200190600101906111cd565b5050505060096000600a600087600f0b600f0b815260200190815260200160002060009054906101000a900473ffffffffffffffffffffffffffffffffffffffff1673ffffffffffffffffffffffffffffffffffffffff1673ffffffffffffffffffffffffffffffffffffffff168152602001908152602001600020600101805480602002602001604051908101604052809291908181526020016000905b828210156113505783829060005260206000200180548060200260200160405190810160405280929190818152602001828054801561133c57602002820191906000526020600020905b815481526020019060010190808311611328575b5050505050815260200190600101906112de565b5050505061046f565b1515145b1561136757611375565b5b8080600101915050611072565b81600f0b81600f0b14156118fa57600115156115b160096000600a600087600f0b600f0b815260200190815260200160002060009054906101000a900473ffffffffffffffffffffffffffffffffffffffff1673ffffffffffffffffffffffffffffffffffffffff1673ffffffffffffffffffffffffffffffffffffffff168152602001908152602001600020600101805480602002602001604051908101604052809291908181526020016000905b828210156114975783829060005260206000200180548060200260200160405190810160405280929190818152602001828054801561148357602002820191906000526020600020905b81548152602001906001019080831161146f575b505050505081526020019060010190611425565b5050505060096000600a600089600f0b600f0b815260200190815260200160002060009054906101000a900473ffffffffffffffffffffffffffffffffffffffff1673ffffffffffffffffffffffffffffffffffffffff1673ffffffffffffffffffffffffffffffffffffffff168152602001908152602001600020600101805480602002602001604051908101604052809291908181526020016000905b828210156115a85783829060005260206000200180548060200260200160405190810160405280929190818152602001828054801561159457602002820191906000526020600020905b815481526020019060010190808311611580575b505050505081526020019060010190611536565b5050505061046f565b151514156118f95760035460096000600a600086600f0b600f0b815260200190815260200160002060009054906101000a900473ffffffffffffffffffffffffffffffffffffffff1673ffffffffffffffffffffffffffffffffffffffff1673ffffffffffffffffffffffffffffffffffffffff168152602001908152602001600020600201600160028110151561164557fe5b015460096000600a600087600f0b600f0b815260200190815260200160002060009054906101000a900473ffffffffffffffffffffffffffffffffffffffff1673ffffffffffffffffffffffffffffffffffffffff1673ffffffffffffffffffffffffffffffffffffffff16815260200190815260200160002060020160006002811015156116d057fe5b0154018115156116dc57fe5b0693507f288f2f2ccdc7eb7462107ebbfa8e52c4432327ac7adb36f177b8ffcc0e4fc98460096000600a600086600f0b600f0b815260200190815260200160002060009054906101000a900473ffffffffffffffffffffffffffffffffffffffff1673ffffffffffffffffffffffffffffffffffffffff1673ffffffffffffffffffffffffffffffffffffffff168152602001908152602001600020600201600060028110151561178957fe5b015460096000600a600087600f0b600f0b815260200190815260200160002060009054906101000a900473ffffffffffffffffffffffffffffffffffffffff1673ffffffffffffffffffffffffffffffffffffffff1673ffffffffffffffffffffffffffffffffffffffff168152602001908152602001600020600201600060028110151561181457fe5b01548660405161182693929190612d57565b60405180910390a16118b560096000600a600087600f0b600f0b815260200190815260200160002060009054906101000a900473ffffffffffffffffffffffffffffffffffffffff1673ffffffffffffffffffffffffffffffffffffffff1673ffffffffffffffffffffffffffffffffffffffff168152602001908152602001600020600101805490506105fe565b840293507f288f2f2ccdc7eb7462107ebbfa8e52c4432327ac7adb36f177b8ffcc0e4fc9848383866040516118ec93929190612d57565b60405180910390a1611907565b5b8180600101925050611050565b600c8490806001815401808255809150509060018203906000526020600020016000909192909190915055508480600101955050610fc7565b600c80548060200260200160405190810160405280929190818152602001828054801561198c57602002820191906000526020600020905b815481526020019060010190808311611978575b5050505050965050505050505090565b6000806000849250839150600a60006002878703600f0b8115156119bc57fe5b058701600f0b600f0b815260200190815260200160002060009054906101000a900473ffffffffffffffffffffffffffffffffffffffff1690505b81600f0b83600f0b131515611f14575b83600f0b83600f0b13158015611bb757506000611b5760096000600a600088600f0b600f0b815260200190815260200160002060009054906101000a900473ffffffffffffffffffffffffffffffffffffffff1673ffffffffffffffffffffffffffffffffffffffff1673ffffffffffffffffffffffffffffffffffffffff168152602001908152602001600020600201600280602002604051908101604052809291908260028015611acf576020028201915b815481526020019060010190808311611abb575b5050505050600960008573ffffffffffffffffffffffffffffffffffffffff1673ffffffffffffffffffffffffffffffffffffffff168152602001908152602001600020600201600280602002604051908101604052809291908260028015611b4d576020028201915b815481526020019060010190808311611b39575b5050505050610678565b1480611bb6575060001515600960008373ffffffffffffffffffffffffffffffffffffffff1673ffffffffffffffffffffffffffffffffffffffff16815260200190815260200160002060000160149054906101000a900460ff161515145b5b15611bc9578280600101935050611a07565b5b600082600f0b12158015611db157506001611d1860096000600a600087600f0b600f0b815260200190815260200160002060009054906101000a900473ffffffffffffffffffffffffffffffffffffffff1673ffffffffffffffffffffffffffffffffffffffff1673ffffffffffffffffffffffffffffffffffffffff168152602001908152602001600020600201600280602002604051908101604052809291908260028015611c90576020028201915b815481526020019060010190808311611c7c575b5050505050600960008573ffffffffffffffffffffffffffffffffffffffff1673ffffffffffffffffffffffffffffffffffffffff168152602001908152602001600020600201600280602002604051908101604052809291908260028015611d0e576020028201915b815481526020019060010190808311611cfa575b5050505050610678565b1480611db057506000151560096000600a600086600f0b600f0b815260200190815260200160002060009054906101000a900473ffffffffffffffffffffffffffffffffffffffff1673ffffffffffffffffffffffffffffffffffffffff1673ffffffffffffffffffffffffffffffffffffffff16815260200190815260200160002060000160149054906101000a900460ff161515145b5b15611dc457818060019003925050611bca565b81600f0b83600f0b131515611f0f57600a600083600f0b600f0b815260200190815260200160002060009054906101000a900473ffffffffffffffffffffffffffffffffffffffff16600a600085600f0b600f0b815260200190815260200160002060009054906101000a900473ffffffffffffffffffffffffffffffffffffffff16600a600086600f0b600f0b81526020019081526020016000206000600a600087600f0b600f0b815260200190815260200160002060008491906101000a81548173ffffffffffffffffffffffffffffffffffffffff021916908373ffffffffffffffffffffffffffffffffffffffff1602179055508391906101000a81548173ffffffffffffffffffffffffffffffffffffffff021916908373ffffffffffffffffffffffffffffffffffffffff160217905550505082806001019350508180600190039250505b6119f7565b81600f0b85600f0b1215611f2d57611f2c858361199c565b5b83600f0b83600f0b1215611f4657611f45838561199c565b5b5050505050565b6000806000600960003373ffffffffffffffffffffffffffffffffffffffff1673ffffffffffffffffffffffffffffffffffffffff16815260200190815260200160002060040160009054906101000a900460ff1680611ff95750600760003373ffffffffffffffffffffffffffffffffffffffff1673ffffffffffffffffffffffffffffffffffffffff16815260200190815260200160002060020160009054906101000a900460ff165b8061205057503373ffffffffffffffffffffffffffffffffffffffff166000809054906101000a900473ffffffffffffffffffffffffffffffffffffffff1673ffffffffffffffffffffffffffffffffffffffff16145b1561205a57600080fd5b600560019054906101000a9004600f0b600f0b600660109054906101000a9004600f0b600f0b12151561208c57600080fd5b845191506000821115806120a1575060045482115b156120ab57600080fd5b3360086000600660009054906101000a9004600f0b600f0b600f0b815260200190815260200160002060006101000a81548173ffffffffffffffffffffffffffffffffffffffff021916908373ffffffffffffffffffffffffffffffffffffffff1602179055506001600660009054906101000a9004600f0b01600660006101000a8154816fffffffffffffffffffffffffffffffff0219169083600f0b6fffffffffffffffffffffffffffffffff160217905550600660109054906101000a9004600f0b90507f82a00550a2b0b2f8f1665198cfc1704664e3af4bf3a122d260d2d27e729c48b1816040516121a19190612d3c565b60405180910390a1600160096000600a600085600f0b600f0b815260200190815260200160002060009054906101000a900473ffffffffffffffffffffffffffffffffffffffff1673ffffffffffffffffffffffffffffffffffffffff1673ffffffffffffffffffffffffffffffffffffffff16815260200190815260200160002060000160146101000a81548160ff0219169083151502179055503360096000600a600085600f0b600f0b815260200190815260200160002060009054906101000a900473ffffffffffffffffffffffffffffffffffffffff1673ffffffffffffffffffffffffffffffffffffffff1673ffffffffffffffffffffffffffffffffffffffff16815260200190815260200160002060000160006101000a81548173ffffffffffffffffffffffffffffffffffffffff021916908373ffffffffffffffffffffffffffffffffffffffff160217905550600a600082600f0b600f0b815260200190815260200160002060009054906101000a900473ffffffffffffffffffffffffffffffffffffffff16600760003373ffffffffffffffffffffffffffffffffffffffff1673ffffffffffffffffffffffffffffffffffffffff16815260200190815260200160002060000160006101000a81548173ffffffffffffffffffffffffffffffffffffffff021916908373ffffffffffffffffffffffffffffffffffffffff1602179055506001600760003373ffffffffffffffffffffffffffffffffffffffff1673ffffffffffffffffffffffffffffffffffffffff16815260200190815260200160002060020160006101000a81548160ff0219169083151502179055506001600660109054906101000a9004600f0b01600660106101000a8154816fffffffffffffffffffffffffffffffff0219169083600f0b6fffffffffffffffffffffffffffffffff16021790555081600760003373ffffffffffffffffffffffffffffffffffffffff1673ffffffffffffffffffffffffffffffffffffffff168152602001908152602001600020600101819055508460096000600760003373ffffffffffffffffffffffffffffffffffffffff1673ffffffffffffffffffffffffffffffffffffffff16815260200190815260200160002060000160009054906101000a900473ffffffffffffffffffffffffffffffffffffffff1673ffffffffffffffffffffffffffffffffffffffff1673ffffffffffffffffffffffffffffffffffffffff16815260200190815260200160002060010190805190602001906125599291906126d9565b508360096000600760003373ffffffffffffffffffffffffffffffffffffffff1673ffffffffffffffffffffffffffffffffffffffff16815260200190815260200160002060000160009054906101000a900473ffffffffffffffffffffffffffffffffffffffff1673ffffffffffffffffffffffffffffffffffffffff1673ffffffffffffffffffffffffffffffffffffffff16815260200190815260200160002060020190600261260d929190612739565b507fb6e80dbb2faead7a95aeedf1a5ce570ea3def1c8309b4e2894dce9dec7e389f233600760003373ffffffffffffffffffffffffffffffffffffffff1673ffffffffffffffffffffffffffffffffffffffff16815260200190815260200160002060000160009054906101000a900473ffffffffffffffffffffffffffffffffffffffff166040516126a1929190612c99565b60405180910390a1505092915050565b60035481565b6040805190810160405280600290602082028038833980820191505090505090565b828054828255906000526020600020908101928215612728579160200282015b82811115612727578251829080519060200190612717929190612779565b50916020019190600101906126f9565b5b50905061273591906127c6565b5090565b8260028101928215612768579160200282015b8281111561276757825182559160200191906001019061274c565b5b50905061277591906127f2565b5090565b8280548282559060005260206000209081019282156127b5579160200282015b828111156127b4578251825591602001919060010190612799565b5b5090506127c291906127f2565b5090565b6127ef91905b808211156127eb57600081816127e29190612817565b506001016127cc565b5090565b90565b61281491905b808211156128105760008160009055506001016127f8565b5090565b90565b508054600082559060005260206000209081019061283591906127f2565b50565b600082601f830112151561284b57600080fd5b813561285e61285982612df1565b612dc4565b9150818183526020840193506020810190508360005b838110156128a4578135860161288a8882612924565b845260208401935060208301925050600181019050612874565b5050505092915050565b600082601f83011215156128c157600080fd5b60026128d46128cf82612e19565b612dc4565b915081838560208402820111156128ea57600080fd5b60005b8381101561291a578161290088826129bd565b8452602084019350602083019250506001810190506128ed565b5050505092915050565b600082601f830112151561293757600080fd5b813561294a61294582612e3b565b612dc4565b9150818183526020840193506020810190508385602084028201111561296f57600080fd5b60005b8381101561299f578161298588826129bd565b845260208401935060208301925050600181019050612972565b5050505092915050565b60006129b58235612f2e565b905092915050565b60006129c98235612f3b565b905092915050565b600080604083850312156129e457600080fd5b600083013567ffffffffffffffff8111156129fe57600080fd5b612a0a85828601612838565b925050602083013567ffffffffffffffff811115612a2757600080fd5b612a3385828601612838565b9150509250929050565b60008060608385031215612a5057600080fd5b600083013567ffffffffffffffff811115612a6a57600080fd5b612a7685828601612838565b9250506020612a87858286016128ae565b9150509250929050565b60008060808385031215612aa457600080fd5b6000612ab2858286016128ae565b9250506040612ac3858286016128ae565b9150509250929050565b60008060408385031215612ae057600080fd5b6000612aee858286016129a9565b9250506020612aff858286016129a9565b9150509250929050565b600060208284031215612b1b57600080fd5b6000612b29848285016129bd565b91505092915050565b612b3b81612ecf565b82525050565b612b4a81612e87565b612b5382612e63565b60005b82811015612b8557612b69858351612b32565b612b7282612ea8565b9150602085019450600181019050612b56565b5050505050565b6000612b9782612e92565b808452602084019350612ba983612e6d565b60005b82811015612bdb57612bbf868351612c51565b612bc882612eb5565b9150602086019550600181019050612bac565b50849250505092915050565b6000612bf282612e9d565b808452602084019350612c0483612e7a565b60005b82811015612c3657612c1a868351612c6f565b612c2382612ec2565b9150602086019550600181019050612c07565b50849250505092915050565b612c4b81612eef565b82525050565b612c5a81612efb565b82525050565b612c6981612f08565b82525050565b612c7881612f24565b82525050565b6000602082019050612c936000830184612b32565b92915050565b6000604082019050612cae6000830185612b32565b612cbb6020830184612b32565b9392505050565b6000604082019050612cd76000830184612b41565b92915050565b60006020820190508181036000830152612cf78184612b8c565b905092915050565b60006020820190508181036000830152612d198184612be7565b905092915050565b6000602082019050612d366000830184612c42565b92915050565b6000602082019050612d516000830184612c51565b92915050565b6000606082019050612d6c6000830186612c51565b612d796020830185612c51565b612d866040830184612c6f565b949350505050565b6000602082019050612da36000830184612c60565b92915050565b6000602082019050612dbe6000830184612c6f565b92915050565b6000604051905081810181811067ffffffffffffffff82111715612de757600080fd5b8060405250919050565b600067ffffffffffffffff821115612e0857600080fd5b602082029050602081019050919050565b600067ffffffffffffffff821115612e3057600080fd5b602082029050919050565b600067ffffffffffffffff821115612e5257600080fd5b602082029050602081019050919050565b6000819050919050565b6000602082019050919050565b6000602082019050919050565b600060029050919050565b600081519050919050565b600081519050919050565b6000602082019050919050565b6000602082019050919050565b6000602082019050919050565b600073ffffffffffffffffffffffffffffffffffffffff82169050919050565b60008115159050919050565b600081600f0b9050919050565b60006fffffffffffffffffffffffffffffffff82169050919050565b6000819050919050565b600081600f0b9050919050565b60008190509190505600a265627a7a72305820123bdf943be6132814b9b372a4be3eecc43bf99f411d94f77c6aaa06448de5426c6578706572696d656e74616cf50037",
  "source": "pragma solidity ^0.4.21;\npragma experimental ABIEncoderV2;\n\ncontract Auction{\n    //static\n    address public auctioneer;\n    uint public startBlock;\n    uint public endBlock;\n    uint256 public q;//large prime\n    uint256 public M;// Number of items\n    \n    //state\n    bool public cancelled;\n    int128 public notary_size;\n    int128 public bidder_size;\n    int128 public notary_no;\n    \n    struct Bidder{\n        address notary;\n        uint256 no_items;\n        bool is_valid;\n    }\n    \n    mapping (address => Bidder) bidder;\n    mapping (int128 => address) bidder_map;\n    struct Notaries{\n        address bidder;\n        bool assigned;\n        uint256[][] input_items;\n        uint256[2] input_value;\n        bool is_valid;\n    }\n    \n    event Assignment(address bidd, address not);\n    event randomnumber(int128 num);\n    event pay(int128 k, int128 j, uint256 num);\n    event equal_item(uint[2]a, uint[2] b);\n    \n    mapping (address => Notaries) notaries;\n    mapping (int128 => address) notary_map;\n    int128[] winner;\n    uint256[] payments;\n    \n    function Auction(uint _q, uint256 _M, uint _startBlock, uint _endBlock)\n    {\n        // if (_startBlock >= _endBlock) throw;\n        // if (_startBlock < block.number) throw;\n        auctioneer=msg.sender;\n        q=_q;\n        M=_M;\n        startBlock=_startBlock;\n        endBlock=_endBlock;\n        notary_size=0;\n        bidder_size=0;\n        notary_no=0;\n    }\n    \n    function notaryRegister() public{\n        if(notaries[msg.sender].is_valid || bidder[msg.sender].is_valid || auctioneer==msg.sender) throw;\n        notaries[msg.sender].is_valid=true;\n        notary_map[notary_size]=msg.sender;\n        notary_size=notary_size+1;\n    }\n    \n    function randomgenerator() returns(uint128)\n    {\n        return uint128(int128(keccak256(block.timestamp, block.difficulty))%notary_size)%uint128(notary_size);\n    }\n    \n    function bidderRegister(uint256[][] items, uint256[2] input) public returns(uint256){\n        if(notaries[msg.sender].is_valid || bidder[msg.sender].is_valid || auctioneer==msg.sender) throw;\n        //get random number\n        if(notary_no>=notary_size) throw;\n        uint256 num_items=items.length;\n        if(num_items<=0 || num_items>M) throw;\n        // if(notaries[notary_map[notary_no]].assigned==true) throw;\n        bidder_map[bidder_size]=msg.sender;\n        bidder_size=bidder_size+1;\n        int128 num=notary_no;\n        // int128 num=int128(randomgenerator());\n        // while(notaries[notary_map[num]].assigned==true)\n        // {\n        //     num=int128(randomgenerator());\n        // }\n        emit randomnumber(num);\n        notaries[notary_map[num]].assigned=true;\n        notaries[notary_map[num]].bidder=msg.sender;\n        bidder[msg.sender].notary=notary_map[num];\n        // notaries[notary_map[notary_no]].assigned==true;\n        // notaries[notary_map[notary_no]].bidder=msg.sender;\n        // bidder[msg.sender].notary=notary_map[notary_no];\n        bidder[msg.sender].is_valid=true;\n        notary_no=notary_no+1;\n        bidder[msg.sender].no_items=num_items;\n        notaries[bidder[msg.sender].notary].input_items=items;\n        notaries[bidder[msg.sender].notary].input_value=input;\n        emit Assignment(msg.sender,bidder[msg.sender].notary);\n    }\n    \n    function sqrt(uint x) returns(uint y)\n    {\n        if (x == 0) return 0;\n        else if (x <= 3) return 1;\n        uint z = (x + 1) / 2;\n        y = x;\n        while (z < y)\n        {\n            y = z;\n            z = (x / z + z) / 2;\n        }\n        return y;\n    }\n    \n    function comparator(uint[2] a, uint[2] b) returns (uint)\n    {\n        int val1=int(a[0])-int(b[0]);\n        int val2=int(a[1])-int(b[1]);\n        // return val1;\n        if(val1+val2==0)\n            return 2;\n        else if((val1+val2+int(q))%int(q)<int(q)/2)\n            return 1;\n        return 0;\n    }\n    \n    function sort(int128 left, int128 right)\n    {\n        int128 i=left;\n        int128 j=right;\n        address pivot = notary_map[left + (right - left)/2];\n        while (i <= j) {\n            while((i<=right)&&(comparator(notaries[notary_map[i]].input_value,notaries[pivot].input_value)==0 || notaries[pivot].assigned==false)) i++;\n            // while (arr[i] < pivot) i++;\n            // while (pivot < arr[j]) j--;\n            while((j>=0)&&(comparator(notaries[notary_map[j]].input_value,notaries[pivot].input_value)==1 || notaries[notary_map[j]].assigned==false)) j--;\n            if (i <= j) {\n                (notary_map[i], notary_map[j]) = (notary_map[j], notary_map[i]);\n                i++;\n                j--;\n            }\n        }\n        if (left < j)\n            sort(left, j);\n        if (i < right)\n            sort(i, right);\n    }\n    \n    function intersection (uint256[][] items,uint256[][] upcoming) returns(bool)\n    {\n        uint[2] c;\n        uint[2] d;\n\n        for(uint i=0;i<upcoming.length;i++)\n        {\n            // c=[upcoming[i][0],upcoming[i][1]];\n            for(uint j=0;j<items.length;j++)\n            {\n                // d=[items[j][0],items[j][1]];\n                if(comparator([upcoming[i][0],upcoming[i][1]],[items[j][0],items[j][1]])==2)\n                {\n                    return true;\n                }\n            }\n        }\n        return false;\n    }\n    \n    function get_payments() returns(uint256[])\n    {\n        bool flag;\n        for(uint256 k=0;k<winner.length;k++)\n        {\n            uint256 ans=0;\n            int128 l=winner[k];\n            emit pay(l,l,ans);\n            flag=false;\n            for(int128 j=0;j<notary_no;j++)\n            {\n                for(int128 i=0;i<j;i++)\n                {\n                    if(i==l)\n                        continue;\n                    if(notaries[notary_map[j]].assigned!=false && intersection(notaries[notary_map[j]].input_items,notaries[notary_map[i]].input_items)==true)\n                    {\n                       break; \n                    }\n                }\n                if(i==j)\n                {\n                    if(intersection(notaries[notary_map[j]].input_items,notaries[notary_map[l]].input_items)==true)\n                    {\n                        ans=(notaries[notary_map[j]].input_value[0]+notaries[notary_map[j]].input_value[1])%q;\n                        emit pay(int128(notaries[notary_map[j]].input_value[0]),int128(notaries[notary_map[j]].input_value[0]),ans);\n                        \n                        ans=ans*sqrt(notaries[notary_map[l]].input_items.length);\n                        emit pay(l,j,ans);\n                        break;\n                    }\n                }\n            }\n            payments.push(ans);\n        }\n        return payments;\n    }\n    \n    function find_winner() returns(int128[])\n    {\n        sort(0,notary_size-1);\n        uint256[][] bid_items;\n        winner.push(0);\n        // for(uint i=0;i<notaries[notary_map[0]].input_items.length;i++)\n        // {\n        //     bid_items.push(notaries[notary_map[0]].input_items[i]);\n        // }\n        bool flag=false;\n        for(int128 j=1;j<notary_no;j++)\n        {\n            flag=false;\n            for(int128 k=0;k<int128(winner.length);k++)\n            {\n                if(notaries[notary_map[j]].assigned==false||intersection(notaries[notary_map[j]].input_items,notaries[notary_map[k]].input_items))\n                {\n                    flag=true;\n                    break;\n                }\n            }\n            if(flag==true)\n                continue;\n            winner.push(j);\n            // if(notaries[notary_map[j]].assigned==false||intersection(notaries[notary_map[j]].input_items,bid_items))\n            // {\n            //     continue;\n            // }\n            // for(uint i=0;i<notaries[notary_map[j]].input_items.length;i++)\n            // {\n            //     winner.push(j);\n            //     bid_items.push(notaries[notary_map[j]].input_items[i]);\n            // }\n        }\n        return winner;\n    }\n    \n    function get_notary_size() public returns(address[2]){\n        return [notary_map[0],notary_map[notary_size-1]];\n    }\n    \n    // function  public payable{\n        \n    // }\n    \n}",
  "sourcePath": "/home/ramarohit/Documents/4-1/Block_chain/assignment1/auction/contracts/contract.sol",
  "compiler": {
    "name": "solc",
    "version": "0.4.24+commit.e67f0147.Emscripten.clang"
  },
  "schemaVersion": "2.0.1",
  "updatedAt": "2018-09-23T12:44:22.858Z"
}